:10000000F6C110C20FC20EC20DC29FC30BC20AC2FC
:1000100009C208C207C206C205C204C203C2400424
:10002000FFFFFFFFFF7F7FBFBF9FFFDFDFDFFFBF60
:100030007F7BFB7307071F7F7F7F7F7FFFFFFBFBBC
:10004000FB03FBFBFBFF0DFF0FDFEFEF1FFFEF1FBE
:10005000FF7F8FFFFFFFFFFFFFFFFFFFFFFFFFFFA0
:100060001F0707030046C3E3E1F1F1F1F9F0F99846
:1000700098D8F8F8F8F8C8E00080E0F0F0FFFF7FCB
:10008000BDBEBFBFFFFDFEDFFC1FFFFF1EFDFFEF7C
:10009000F0FEFFFFFFFFFFFFFFFFFFFFFF3FFFFF40
:1000A000FFFEFEFCFCF8E1E387070F0F0F0F0F0FB9
:1000B0000F0F0F0707C3E3F0F8FEFFFFFFFFF0EF9E
:1000C000DFDF5D5D617F5E407F407F7F405E5E5E23
:1000D000617F615A5A5A597F605E7E7EFEC0DEFFA4
:1000E000FFFFFFFFFFFFFFFFFFFCF8800000044C55
:1000F000687878707CB977776F8FFFFFFFFFFFFF1D
:10010000FFFF007F010149552501097D090179158E
:1001100079017D355901097D09017F00FFFFFFFF4E
:10012000F1DBFE0000FEFBF102A5FD02555775DD77
:1001300055577DD5F0FFFCC0552B55FF012B552B96
:1001400081E799FFFF99E799FE361C047EB61C04EF
:100150007EBE1C00FE3E1C00FF9F0E00001CBE7EEB
:10016000001C3EFE041C36FE041CB67E020EDB7F25
:1001700055AA55AA02FDA5027FDB0E02000E9FFFC5
:100180000A0B0B041309080C090B0F100F100F10AA
:100190000F100F100F100F100F100F100F100F1067
:1001A0000F10000000000F0000100F100F100F10B4
:1001B0000F100F100F100F100F100000000003049D
:1001C00003040000000803040304030403040304FD
:1001D0000304000000000000000000000000000B0D
:1001E000000000000B00000000000F100F100000C6
:1001F000000003040304000B0000000000000304DF
:1002000003040304030400000304000000000000D2
:100210000000000003040000000B00000000000DBF
:100220000E000000000003040304000000000000B2
:100230000000000000080000030400000B0003049D
:10024000030403040304000003040000000003048B
:100250000304000000000B0000000304030400007E
:100260000000000000000000000000000000000B83
:100270000000000000000000000003040304030469
:100280000000000000000000000000000000030467
:100290000304000000000000000000000B0000004C
:1002A000000B000000000000000000000304030435
:1002B0000304030400000000000003040304000022
:1002C00000000304030403040304030403040304FD
:1002D00003040304030403040304030403040304E6
:1002E00003040304030403040304000000000304E4
:1002F000030403040304000C0B0C020C03070C089A
:100300000A020C020C020304070C000000000B0C94
:1003100001020306030C030C03060C000000000C92
:10032000020101030303030C01010108070B000094
:10033000000001020C0C030C030C0102060B000070
:100340000000010C020A0B0A080C0203030C030351
:1003500000000000030A04070306040603020C035E
:10036000020B0C04050102020C0105050C00000043
:10037000000B0A0A0807060A06050302000000002F
:1003800001010203040303020C020605070B010C22
:100390000000000001020307070605080902010327
:1003A000040607010B00000000010204040205021C
:1003B0000B09080A0A020C040607000000000000EE
:1003C00000360001020000040000000000000000F0
:1003D00000380000000000370002020202020202A0
:1003E0000202020102040810202004100800112457
:1003F0001FBECFE5D2E0DEBFCDBF10E0A0E6B0E08B
:10040000E8E8FFE102C005900D92A638B107D9F7E0
:1004100021E0A6E8B0E001C01D92AE3DB207E1F7D1
:10042000DED1B0CDEDCDCF93DF9390E0FC01ED5167
:10043000FC4F249187529C4FFC0184918823C1F08A
:1004400090E0880F991FFC01ED52FC4FC591D491AB
:10045000FC01E353FC4FA591B4919FB7F8948881B8
:10046000E22FE0958E2388838C91E823EC939FBF45
:10047000DF91CF91089517B8369A3699FECF84B19F
:1004800095B10895823089F018F4813051F00895C3
:10049000833019F0843009F008958CB58F7D8CBDC0
:1004A00008958AB58F778ABD08958AB58F7DFBCF71
:1004B000CF93DF93E4ECF3E08491E4EEF3E0D491A6
:1004C000EAEDF3E0C491CC2399F08111DBDFEC2F4E
:1004D000F0E0EE0FFF1FE354FC4FA591B491EC91B7
:1004E000ED2381E090E009F480E0DF91CF91089561
:1004F00080E090E0FACF1092D00110928A00109222
:10050000D20181E0809361001092BE001092BD0084
:100510001092860010928700109288001092890035
:10052000E4E9F0E010821182329680E0EC3BF807BB
:10053000C9F71092BC001092CF0108956F927F927C
:100540009F92AF92BF92CF92DF92EF92FF920F9362
:100550001F93CF93DF93FC0180859185C681D7815E
:100560005E01AA0CBB1CAA0CBB1C8C01A3E0000FF3
:10057000111FAA95E1F7019762E270E0CBDC8C0FC6
:100580009D1F81549F4FA8014850510999249A9466
:100590007A0127E0E20EF11C2FEF3FEFDC01A20F02
:1005A000B31F6C91762F777F89F16B3079F175509D
:1005B000723060F1673351F1623441F16481D501E9
:1005C000A60FB11D67FDBA95BE01620F731F3B01F7
:1005D000660C771C660C771C630163E0C60ED11CA9
:1005E000CA16DB069CF01796A615B7057CF0658148
:1005F000D801A60FB11D67FDBA95BD01EA16FB062D
:100600002CF0695F7F4F64177507E4F42F5F3F4F4D
:100610002330310509F0C2CF8296485F5F4F939433
:10062000B3E09B12B5CF80E0DF91CF911F910F9186
:10063000FF90EF90DF90CF90BF90AF909F907F9012
:100640006F90089581E0F0CFE4E9F0E0908191119E
:1006500003C02181222339F0981303C0918196179A
:1006600021F03296F3CF8BE0089580E0089528E0E2
:10067000C29887FDC09A87FFC098C29A880F2A95B2
:10068000B9F7C298C09AB898C29AC298B89AC09856
:100690000895C098C29AC09A0895C09AC29AC09804
:1006A000C2980895CF93C82FF8DF88E7E0DF80E095
:1006B000DEDF8C2F8770806BDADF80E0D8DF80E1AF
:1006C000D6DFE7DFEADF88E7D2DF80E4CF91CFCF64
:1006D00090E02FEF30E0281B31098111C49A40E0EF
:1006E0004217130634F455E05A95F1F700004F5FB6
:1006F000F7CFC49840E04217130634F455E05A95FA
:10070000F1F700004F5FF7CF9F5F6913E6CF0895C1
:100710006AE082EDDDDF62E080EFDADF65E084EB46
:10072000D7CFCF93CFEF61E08C2FD2DFC150C23053
:10073000D1F7CF910895DFDE8091D4018F5F809350
:10074000D401EFDFEEDFEDDFECCF1F920F920FB69B
:100750000F9211242F933F938F939F93AF93BF9347
:100760008091DA019091DB01A091DC01B091DD0173
:100770003091D90123E0230F2D3758F50196A11DA3
:10078000B11D2093D9018093DA019093DB01A093EE
:10079000DC01B093DD018091D5019091D601A0914B
:1007A000D701B091D8010196A11DB11D8093D5014B
:1007B0009093D601A093D701B093D801BF91AF9188
:1007C0009F918F913F912F910F900FBE0F901F908F
:1007D000189526E8230F0296A11DB11DD2CFCF9305
:1007E000DF93CDB7DEB72D970FB6F894DEBF0FBEFF
:1007F000CDBF78948AB582608ABD8AB581608ABD92
:1008000083B7826083BF83B7816083BF89B782600B
:1008100089BF80B7826080BF80B7816080BF329A15
:10082000319A309A379A8CB580648CBD0FEF13EFF4
:1008300021E0015010402040E1F700C00000BA9ACA
:10084000B89AC29AC09A8FE39CE90197F1F700C069
:10085000000023DF88E70BDF80E009DF8EEA07DF97
:1008600085ED05DF80E803DF88EA01DF8FE3FFDE47
:1008700083EDFDDE80E0FBDE80E4F9DE8DE8F7DE6F
:1008800084E1F5DE81EAF3DE88ECF1DE8AEDEFDE6D
:1008900082E1EDDE81E8EBDE8FECE9DE89EDE7DE7B
:1008A00081EFE5DE8BEDE3DE80E4E1DE80E2DFDE9A
:1008B00080E0DDDE8FEADBDEECDEAFE3BCE9119742
:1008C000F1F700C00000BFEFE3EFF1E0B150E0400E
:1008D000F040E1F700C00000BC9A86E0A4DD81E0B2
:1008E000A2DDE6ECF3E08491E6EEF3E00491ECEDBA
:1008F000F3E01491112389F08111C4DDE12FF0E0C0
:10090000EE0FFF1FE353FC4FA591B4918FB7F894FE
:10091000EC9100950E230C938FBFF8E04F2E512CD5
:10092000F7DEFFDEFEDEF4DEFCDEFBDE0FEF13ECB7
:1009300029E0015010402040E1F700C00000DBDD5D
:100940001092D40187E08093D1016CEFC62EDD2494
:10095000DA9410E000E07EE1A72E70E0B72EEFE120
:100960008E2EE0E09E2E702E802F9CDEF12CE12C4E
:10097000F501849190E0F4012491AC01415E5F4F58
:100980004E155F0508F4E3C0FFE1FE1508F0DFC077
:1009900033E0371508F0DBC030E02D5F3F4F201704
:1009A000310708F4D4C0B601B5DA8E0D9F1D805012
:1009B0009040FC0184915BDEFFEFEF1AFF0A20E814
:1009C000E216F104A9F665DE0F5F1F4F3FEFC31A71
:1009D000D30A0830110509F0C6CF8FEF97E8A3E1DD
:1009E00081509040A040E1F700C0000061DD892BFC
:1009F000E9F78EDE80DD8091D4018A3008F090CF57
:100A0000BFEFE7E8F3E1B150E040F040E1F700C0AC
:100A1000000019821A821B821C821D821E828BE0BA
:100A200090E098878F8383E090E09A87898723DD21
:100A3000853F914034F11FDD8E3E924014F5809148
:100A4000D301837049F48091D2018F5F8093D201EA
:100A5000833010F01092D201109261001D8181E06C
:100A6000810F8D83CE01019669DD813009F41D83EC
:100A70008D81843034F08F8198851D82019698870E
:100A80008F83F9DC8E3E924044F1F5DC863B934047
:100A900024F58091D301837049F48091D2018F5F56
:100AA0008093D201833010F01092D20181E08093C4
:100AB00061001D818FEF810F8D83CE0101963EDD98
:100AC000813009F41D838D8187FF07C08F81988550
:100AD00023E02D83019798878F832F8138852A30D3
:100AE0003105D4F48091D00118163CF490918A001D
:100AF00094301CF49F5F90938A0090918A00943008
:100B00005CF018164CF410928A0081508093D0014A
:100B10002F5F3F4F38872F838F81988583319105D1
:100B20003CF020918A00215027FD13C020938A00B9
:100B300029843A8487E028163104BCF0F2DD8091E4
:100B4000D10181508093D101811154CFE9CE8FEF33
:100B500032CF23E020938A002091D0012F5F209391
:100B6000D001019798878F83E3CF0091D4010B8741
:100B70006090D0015FEBA52E50E0B52E762C10E0F2
:100B800000E03B85232F30E03D872C87C62C062CC8
:100B9000000CDD088B858A3008F0C2CEEC85FD851F
:100BA000ED52FA4F099409C0C3C1CEC1D9C1E4C105
:100BB000EFC1FAC105C210C21BC2F601E00FF11F5E
:100BC000F7FD3396F595E795F595E795E855FC4FD4
:100BD000E491E093CF01C601800F911F64E070E0C3
:100BE000AAD9E091CF01F0E0EE0FFF1FEE0FFF1F3B
:100BF0007C01EE0EFF1EF701EE53FD4FE491EB304A
:100C000009F002C261E0872D1FDDD50192968C9319
:100C1000F701E257FD4FE49195012C5B3F4F4901ED
:100C2000EB3009F0F5C162E0872D0EDDD4018C9325
:100C3000F701E65AFD4FE49195012A593F4F4901CA
:100C4000EB3009F0E8C163E0872DFEDCD4018C9322
:100C5000F701EA5DFD4FE491950128573F4F4901A7
:100C6000EB3009F0DBC164E0872DEEDCD4018C931E
:100C7000F701EE50FE4FE491950126553F4F490193
:100C8000EB3009F0CEC165E0872DDEDCD4018C931A
:100C9000F701E254FE4FE491950124533F4F49017F
:100CA000EB3009F0C1C166E0872DCEDCD4018C9316
:100CB000F701E657FE4FE491950122513F4F49015C
:100CC000EB3009F0B4C167E0872DBEDCD4018C9312
:100CD0000F5F1F4F7394BFEFAB1ABB0A01321105B0
:100CE00009F058CF1091BE00111116C00E8182E09C
:100CF000800F8E8388302CF01E82C10101969A8766
:100D00008987CE0101961ADC181634F4022C000CE7
:100D100033083A8629860E83CBDBFE80892B81F44B
:100D200011110EC08091BD0081110AC0CE01019643
:100D300005DC811105C0F11003C083E08093BE0083
:100D4000B7DB019711F41092BD008091BE00181618
:100D500084F509851A85982F990FF91AFE82F7FEF6
:100D600028C097E09E839801215031093A8729874E
:100D700081508093BE00121613064CF48091BD0082
:100D8000813029F0CE010196D9DB18165CF410925F
:100D9000BE0081E08093BD001E82002E000C110B6E
:100DA0001A8709878091BE00811103C081E080937A
:100DB000BD007E80E984FA840F811885C70162E254
:100DC00070E0A8D881549F4FFC01E00FF11F808193
:100DD000F80131966F0198012E5F3F4F5901711054
:100DE0008FC18B3079F48091BC00E82FF0E0EE0FDA
:100DF000FF1FEC56FF4FE182600E60828F5F809391
:100E0000BC0086DCC70162E270E084D881549F4F49
:100E1000FC01EC0DFD1D80818B3091F49091BC00A4
:100E2000E92FF0E0EE0FFF1FEC56FF4FE1828091BB
:100E3000D001800F8F5F80839F5F9093BC0068DC40
:100E4000C70162E270E066D881549F4FFC01EA0D51
:100E5000FB1D80818B3091F49091BC00E92FF0E074
:100E6000EE0FFF1FEC56FF4FE1828091D001800F03
:100E70008E5F80839F5F9093BC004ADCC70162E273
:100E800070E048D881549F4FFC01E00FF11F208192
:100E9000283061F0FC01EC0DFD1D2081283031F07F
:100EA0008A0D9B1DDC018C91883099F48091930010
:100EB00081110FC08091D10181508093D10188238D
:100EC00009F42ECD82E08093BE008EE180939300E2
:100ED00028DCC70162E270E01DD881549F4FFC01FD
:100EE000E00FF11F30813D3091F0FC01EC0DFD1D54
:100EF00020812D3061F08A0D9B1DFC0180818D5079
:100F0000823028F03E3019F02E3009F093C0E09185
:100F1000D401F0E0E058FE4FE4918091BC00E8136A
:100F200089C08091BE0018160CF084C004DC63CD2B
:100F3000F601E00FF11FF7FD3396F595E795F5956E
:100F4000E795ED56FC4F44CEF601E00FF11FF7FD9B
:100F50003396F595E795F595E795E158FC4F38CE32
:100F6000F601E00FF11FF7FD3396F595E795F5953E
:100F7000E795E059FC4F2CCEF601E00FF11FF7FD8D
:100F80003396F595E795F595E795ED5AFC4F20CE0C
:100F9000F601E00FF11FF7FD3396F595E795F5950E
:100FA000E795EF5BFC4F14CEF601E00FF11FF7FD64
:100FB0003396F595E795F595E795EF5CFC4F08CEF0
:100FC000F601E00FF11FF7FD3396F595E795F595DE
:100FD000E795E25EFC4FFCCDF601E00FF11FF7FD57
:100FE0003396F595E795F595E795E35FFC4FF0CDE2
:100FF000F601E00FF11FF7FD3396F595E795F595AE
:10100000E795EA50FD4FE4CDD5019296EC9300CEE2
:10101000D901EC930DCED901EC931ACED901EC9302
:1010200027CED901EC9334CED901EC9341CED9012E
:10103000EC934ECEC70162E270E06CD781549F4FB3
:10104000FC01E00FF11F298120838C0D9D1D2A8159
:10105000DC012C938091D30180FD0EC08091930020
:10106000882351F090916000913009F08FC1109267
:1010700060008150809393008091600071108DC159
:10108000813009F087C185E0898386E08A8380E02A
:1010900009DB912C98E7A92E91E0B92E29E7C22E01
:1010A00021E0D22E3AE7E32E31E0F32E0BE711E0F8
:1010B0008091D10190E09C012150310992161306D4
:1010C0000CF07BC1ECE7F1E08491D1DAEDE7F1E0DF
:1010D0008491CDDAEEE7F1E08491C9DAEFE7F1E04F
:1010E0008491C5DAF5018491C2DAF6018491BFDA00
:1010F000F7018491BCDAF8018491B9DA9394D8CFDE
:101100008B3079F48091BC00E82FF0E0EE0FFF1FE8
:10111000EC56FF4FE182600E60828F5F8093BC00CF
:10112000F7DAC70162E270E0F5D681549F4FFC0107
:10113000EC0DFD1D80818B3091F49091BC00E92F66
:10114000F0E0EE0FFF1FEC56FF4FE1828091D001DF
:10115000800F8F5F80839F5F9093BC00D9DAC701B7
:1011600062E270E0D7D681549F4FFC01EA0DFB1D6F
:1011700080818B3091F49091BC00E92FF0E0EE0F6C
:10118000FF1FEC56FF4FE1828091D001800F8E5FF0
:1011900080839F5F9093BC00BBDA4701BFEF8B1A3F
:1011A0009B0AC40162E270E0B5D681549F4FFC01F6
:1011B000E00FF11F80818B3099F48091BC00E82F03
:1011C000F0E0EE0FFF1FEC56FF4F91E09E0D918374
:1011D0009091D001900F90838F5F8093BC0098DA3C
:1011E000C40162E270E096D681549F4FFC01EC0D81
:1011F000FD1D80818B30A1F49091BC00E92FF0E0BF
:10120000EE0FFF1FEC56FF4F81E08E0D8183809122
:10121000D001800F8F5F80839F5F9093BC0078DA4E
:10122000C40162E270E076D681549F4FFC01EA0D62
:10123000FB1D80818B30A1F49091BC00E92FF0E080
:10124000EE0FFF1FEC56FF4F81E08E0D81838091E2
:10125000D001800F8E5F80839F5F9093BC0058DA2F
:10126000C70162E270E056D681549F4FFC01E00F47
:10127000F11F2081283061F0FC01EC0DFD1D208163
:10128000283031F08A0D9B1DFC018081883099F453
:101290008091930081110FC08091D1018150809382
:1012A000D101882309F43CCB82E08093BE008EE11B
:1012B0008093930036DAC70162E270E02BD6815446
:1012C0009F4FFC01E00FF11F30813D3079F1FC01AF
:1012D000EC0DFD1D20812D3049F18A0D9B1DDC0197
:1012E0004C914D3019F1C40162E270E013D6815483
:1012F0009F4FFC01E00FF11F50815D30B9F0FC0100
:10130000EC0DFD1D60816D3089F0A80EB91EF50150
:1013100080818D50823050F03E3041F02E3031F0DF
:101320004E3021F05E3011F06E3079F4E091D4014E
:10133000F0E0E058FE4FE4918091BC00E81305C056
:101340008091BE0018160CF4F1CDC70162E270E086
:10135000E1D581549F4FFC01E00FF11F29812083CB
:101360008C0D9D1D2A81DC012C93C40162E270E08A
:10137000D1D581549F4FFC01E00FF11F2B812083B9
:101380008C0D9D1D2C81FC01208364CE91E09093F7
:1013900060006FCE19821A827ACE813049F485E0DE
:1013A000898386E08A8387E38B8382E48C836FCE94
:1013B00019821A821B821C826ACEF12C0FE010E087
:1013C000081B190BF01611064CF488E0E82E80E09B
:1013D0004ED9EA94E110FBCFF394F4CFE091D4011D
:1013E000F0E0E058FE4FE4918091BC00E8137FC02C
:1013F0008091D3018F3108F07AC0E4E7F1E0849165
:1014000036D9E5E7F1E0849132D9E6E7F1E084915D
:101410002ED9E7E7F1E084912AD9CC24C394D12CCA
:1014200004E0902E8C2D3ED980918A00E92CE81A98
:1014300000E0A12CC60162E270E06CD581549F4FA0
:10144000FC01EA0DF11D8081873009F05CC08E2D12
:1014500090E09C0120593E4F3901102FE01A8E2D4B
:10146000810F843008F0B4C3F301849100D91F5F69
:10147000FFEF6F1A7F0A17FFF2CF0BD91FEFC11AC8
:10148000D10A28E0C216D10469F680918F009091AC
:101490009000A0919100B091920040918B005091EA
:1014A0008C0060918D0070918E008C019D01041B59
:1014B000150B260B370BB901A80149315105610500
:1014C000710508F087C32FB7F8948091DA019091E5
:1014D000DB01A091DC01B091DD012FBF80938F0073
:1014E00090939000A0939100B0939200CECF14E01F
:1014F00080E0BDD880E0BBD880E0B9D880E0B7D824
:101500001150B1F78ACF853009F464C0873309F0F0
:1015100033C18E81F201E81BF10987FDF395EE0FCF
:10152000FF1FEE0FFF1FEE59FF4F208131814281D7
:10153000538160E070E088EC92E45FD320E030E01B
:1015400048EC52E45AD360938600709387008093EE
:10155000880090938900102F8D81082E000C990B24
:10156000212F201B281719060CF04BC080E07FD8D4
:101570001F5F17FFF1CF00E0B090D20180916100B2
:10158000813009F08BC0B1103EC06CE6E62E61E000
:10159000F62E74E0872E810EF701649170E090E0E2
:1015A00080E0C1D32091860030918700409188006F
:1015B0005091890044D489D3862F59D81F5F17FDD5
:1015C0005CCFFFEFEF1AFF0A1811E6CF002309F4F2
:1015D00054CF24C1EE810E2E000CFF0BEE0FFF1F27
:1015E000EE0FFF1FEE59FF4F80819181A281B381E1
:1015F0008093860090938700A0938800B093890021
:10160000AACF01E0B9CF21E0B21223C048E6E42E10
:1016100041E0F42E54E0B52EB10EF701649170E074
:1016200090E080E080D32091860030918700409147
:1016300088005091890003D448D3862F18D81F5FA3
:1016400017FD1BCFFFEFEF1AFF0A1B11E6CFB12CDE
:10165000BDCF22E0B212BAC224E6E22E21E0F22E81
:1016600034E0B32EB10EF701649170E090E080E0B9
:101670005AD3209186003091870040918800509184
:101680008900DDD322D3862FF2D71F5F17FDF5CE59
:10169000FFEFEF1AFF0A1B11E6CFD9CFB11022C01E
:1016A0008CE7E82E81E0F82E94E0892E810EF70178
:1016B000649170E090E080E036D320918600309114
:1016C00087004091880050918900B9D3FED2862FBF
:1016D000CED71F5F17FDD1CEFFEFEF1AFF0A18110B
:1016E000E6CF74CF21E0B21222C0A0E6EA2EA1E03C
:1016F000FA2EB4E0BB2EB10EF701649170E090E0D9
:1017000080E011D3209186003091870040918800BD
:101710005091890094D3D9D2862FA9D71F5F17FD86
:10172000ACCEFFEFEF1AFF0A1B11E6CF90CF22E0FD
:10173000B2124CC2ECE5EE2EE1E0FE2EF4E0BF2E3C
:10174000B10EF701649170E090E080E0ECD220915E
:1017500086003091870040918800509189006FD3B6
:10176000B4D2862F84D71F5F17FD87CEFFEFEF1A05
:10177000FF0AB112E6CF6BCF863009F453C0823432
:1017800009F01CC18E81F201E81BF10987FDF39578
:10179000EE0FFF1FEE0FFF1FEE59FF4F208131812B
:1017A0004281538160E070E088EC92E426D220E030
:1017B00030E048EC52E421D26093860070938700B9
:1017C00080938800909389008091D201909161006C
:1017D000913009F088C081113CC058E5E52E51E0F8
:1017E000F52E14E0100FF701649170E090E080E0B6
:1017F0009AD22091860030918700409188005091C4
:1018000089001DD362D2862F32D70F5F07FD35CEF8
:10181000BD80FFEFEF1AFF0A0113E5CFA394EB2C75
:10182000012F08CEEE810E2E000CFF0BEE0FFF1FD6
:10183000EE0FFF1FEE59FF4F80819181A281B3818E
:101840008093860090938700A0938800B0938900CE
:10185000BBCF813019F544E5E42E41E0F42E14E0CD
:10186000100FF701649170E090E080E05CD220916D
:101870008600309187004091880050918900DFD226
:1018800024D2862FF4D60F5F07FDF7CDFFEFEF1AB6
:10189000FF0A0113E6CFBD80102FC0CF823009F5BB
:1018A00030E5E32E31E0F32E14E0100FF7016491E0
:1018B00070E090E080E037D2209186003091870080
:1018C0004091880050918900BAD2FFD1862FCFD69F
:1018D0000F5F07FDD2CDFFEFEF1AFF0A0113E6CF2E
:1018E000ED80BE2CD9CF811122C028E7E22E21E065
:1018F000F22E14E0100FF701649170E090E080E0A8
:1019000012D220918600309187004091880050913A
:10191000890095D2DAD1862FAAD60F5F07FDADCD0B
:10192000BD80FFEFEF1AFF0A0113E5CF77CF8130BB
:1019300009F59CE4E92E91E0F92E14E0100FF7016F
:10194000649170E090E080E0EED1209186003091CB
:101950008700409188005091890071D2B6D1862FBE
:1019600086D60F5F07FD89CDFFEFEF1AFF0A01133F
:10197000E6CF91CF823009F0B4CF88E4E82E81E041
:10198000F82E14E0100FF701649170E090E080E011
:10199000CAD12091860030918700409188005091F3
:1019A00089004DD292D1862F62D60F5F07FD65CD9B
:1019B000FFEFEF1AFF0A0113E6CF92CFBE2CB01A49
:1019C0008130A9F4F12C97012C5B3E4F7901102F47
:1019D0008B2D810F843008F0FBC0F701849147D62E
:1019E0001F5FFFEFEF1AFF0A17FFF2CF46CD8230DD
:1019F000A9F4F12C9701205C3E4F7901102F8B2D1B
:101A0000810F843008F0E4C0F701849130D61F5F65
:101A1000FFEFEF1AFF0A17FFF2CF2FCD8330A9F4A3
:101A2000F12C9701245C3E4F7901102F8B2D810FF3
:101A3000843008F0CDC0F701849119D61F5FFFEF05
:101A4000EF1AFF0A17FFF2CF18CD8430A9F4F12C5A
:101A50009701285C3E4F7901102F8B2D810F843028
:101A600008F0B6C0F701849102D61F5FFFEFEF1AAE
:101A7000FF0A17FFF2CF01CD8830A9F4F12C9701AE
:101A80002C5C3E4F7901102F8B2D810F843008F094
:101A90009FC0F7018491EBD51F5FFFEFEF1AFF0A9C
:101AA00017FFF2CFEACC8F30A9F4F12C9701205D1B
:101AB0003E4F7901102F8B2D810F843008F088C0A4
:101AC000F7018491D4D51F5FFFEFEF1AFF0A17FFCC
:101AD000F2CFD3CC8031A9F4F12C9701245D3E4F95
:101AE0007901102F8B2D810F843008F071C0F70120
:101AF0008491BDD51F5FFFEFEF1AFF0A17FFF2CFEA
:101B0000BCCC8B3069F58091D301F12C8F31A0F4DE
:101B100097012C583E4F7901102F8B2D810F843067
:101B200008F056C0F7018491A2D51F5FFFEFEF1AAE
:101B3000FF0A17FFF2CFA1CCC701885D9E4F7C0141
:101B4000102F8B2D810F843008F042C0F701849153
:101B50008ED51F5FFFEFEF1AFF0A17FFF2CF8DCC74
:101B60008D30A1F4F12C97012C5D3E4F7901102F9F
:101B70008B2D810F843060F5F701849178D51F5F3C
:101B8000FFEFEF1AFF0A17FFF3CF77CC102F8E303D
:101B900099F4F12C9701205E3E4F79018B2D810F36
:101BA0008430B0F4F701849162D51F5FFFEFEF1A24
:101BB000FF0A17FFF3CF61CC8B2D810F843040F4E7
:101BC00080E055D51F5F17FFF7CF57CCBE2CFECC5A
:101BD000B12C24CE80938B0090938C00A0938D0029
:101BE000B0938E008091D3018F5F8093D3018D33AA
:101BF00008F41DC71092D3011AC70CD0E6C0DED07E
:101C000040F0D5D030F021F45F3F19F0C7C051113A
:101C100010C1CAC0EBD098F39923C9F35523B1F38F
:101C2000951B550BBB27AA2762177307840738F04B
:101C30009F5F5F4F220F331F441FAA1FA9F333D0AA
:101C40000E2E3AF0E0E830D091505040E695001C5E
:101C5000CAF729D0FE2F27D0660F771F881FBB1F1A
:101C6000261737074807AB07B0E809F0BB0B802DF4
:101C7000BF01FF2793585F4F2AF09E3F510568F040
:101C80008DC0D7C05F3FECF3983EDCF38695779527
:101C90006795B795F7959F5FC9F7880F911D969542
:101CA000879597F90895E1E0660F771F881FBB1F9E
:101CB000621773078407BA0720F0621B730B840B4B
:101CC000BA0BEE1F88F7E095089598D088F09F57DB
:101CD00090F0B92F9927B751A0F0D1F0660F771F78
:101CE000881F991F1AF0BA95C9F712C0B13081F058
:101CF0009FD0B1E008959CC0672F782F8827B85FE8
:101D000039F0B93FCCF3869577956795B395D9F7B8
:101D10003EF490958095709561957F4F8F4F9F4FC2
:101D20000895E89409C097FB3EF4909580957095CE
:101D300061957F4F8F4F9F4F9923A9F0F92F96E917
:101D4000BB279395F695879577956795B795F1118C
:101D5000F8CFFAF4BB0F11F460FF1BC06F5F7F4F29
:101D60008F4F9F4F16C0882311F096E911C077233B
:101D700021F09EE8872F762F05C0662371F096E844
:101D8000862F70E060E02AF09A95660F771F881F13
:101D9000DAF7880F9695879597F9089597F99F67D1
:101DA00080E870E060E008959FEF80EC08950024E3
:101DB0000A941616170618060906089500240A94B0
:101DC00012161306140605060895092E0394000C36
:101DD00011F4882352F0BB0F40F4BF2B11F460FFC5
:101DE00004C06F5F7F4F8F4F9F4F089557FD9058EE
:101DF000440F551F59F05F3F71F04795880F97FBCF
:101E0000991F61F09F3F79F0879508951216130688
:101E10001406551FF2CF4695F1DF08C016161706B7
:101E20001806991FF1CF86957105610508940895EC
:101E3000E894BB2766277727CB0197F908950AD046
:101E4000C4CFB5DF28F0BADF18F0952309F0A6CF8C
:101E5000ABCFEFCFCBDFA8F39923D9F35523C9F349
:101E6000950F50E0551FAA27EE27FF27BB27002418
:101E70000894679520F4E20FF31FB41F0A1E220F87
:101E8000331F441FAA1F6695A9F7779530F4F30F07
:101E9000B41F0A1E121E08F46395330F441FAA1FB5
:101EA000221F769599F7879520F4B40F0A1E121E0B
:101EB000631F440FAA1F221F331F8695A9F7862F81
:101EC000712D602D11249F5750408AF0E1F0882336
:101ED0004AF0EE0FFF1FBB1F661F771F881F915030
:101EE0005040A9F79E3F510570F058CFA2CF5F3FF9
:101EF000ECF3983EDCF3869577956795B795F79563
:101F0000E7959F5FC1F7FE2B880F911D96958795EA
:101F100097F908950024552704C0080E591F880F0B
:101F2000991F009729F076956795B8F37105B9F771
:101F3000802D952F089597FB072E16F4009406D058
:101F400077FD08D00BD007FC05D03EF49095819525
:101F50009F4F0895709561957F4F0895AA1BBB1BF5
:101F600051E107C0AA1FBB1FA617B70710F0A61B99
:101F7000B70B881F991F5A95A9F780959095BC01BA
:081F8000CD010895F894FFCF94
:101F880001010000803F0000004000008040000088
:101F98000041000080410000004200008042000033
:061FA8000043000080432D
:00000001FF
