:10000000DCC6F6C6F5C6F4C6F3C6C8C8F1C6F0C667
:10001000EFC6EEC6EDC6ECC6EBC6EAC6E9C6000002
:100020000000360060F6FF6F4658F0C01C363F5F98
:10003000773F1E3B386C5C7C383810601F7E58B0B0
:10004000E0E040401C3E7F7F7F361C001C3E7F036B
:100050007F361C001C3E0F030F361C000022637508
:10006000773E1C0014367775773E1C001C3E7F7D62
:100070007F3E1C001C3E7F7F7F361C001C3E7F6045
:100080007F361C001C3E786078361C001C3E7F7D4D
:100090007F3E1C001C3E7775773614001C3E77753A
:1000A000632200002D7F7F5B7F7F3E005A7F7F5B56
:1000B0007F7F3E002D7F7F7F6D7F3E005A7F7F7F59
:1000C0006D7F3E002D77416541413E005A77416585
:1000D00041413E002D77414153413E005A77414115
:1000E00053413E000000000024000000000000001A
:1000F00024000000000000001200000000000000CA
:1001000012000000000000000000000000000000DD
:1001100000000000000000000000000000000000DF
:1001200000000000000000000000000000000000CF
:1001300000000000000000000000000000000000BF
:1001400000000000000000000000000000000000AF
:10015000000000000000000000000000000000009F
:10016000000000000000000000000000000000008F
:10017000000000000000000000000000000000007F
:10018000000000000000000000000000000000006F
:100190000000000000060600000000000000020051
:1001A000000000000000000200000000000000004D
:1001B000020000000000000000020000000000003B
:1001C000000002000000000000000002000000002B
:1001D000000000000200000000000000000200001B
:1001E000000000000000000200000000000000000D
:1001F00000020000000000000000000606000000F1
:1002000000000000000000000000000000000000EE
:1002100000000000000400000000000000000000DA
:1002200000000000000000040000000000000000CA
:1002300000000008000000000000000000080000AE
:1002400000000000000000080000000000000000A6
:100250000000000000000000000000000008000096
:100260000000000000000008000000000000000086
:100270000004000000000000000000040000000076
:10028000000000000000000000000000000000006E
:10029000000000000008000000000000000008004E
:1002A0000000000000000008000000000000000046
:1002B000000000080000000000000000000800002E
:1002C000000000000000000000000000000000002E
:1002D0000000000000000000000000000008000016
:1002E0000000000000000008000000000000000006
:1002F00000080000000000000000000800000000EE
:1003000000000000000000000000000000000000ED
:10031000000000000020000000000000000020009D
:1003200000000000000000200000000000000000AD
:10033000000000200000000000000000002000007D
:1003400000000000000000000000000000000000AD
:10035000000000000000000000000000002000007D
:10036000000000000000002000000000000000006D
:10037000002000000000000000000020000000003D
:10038000000000000000000000000000000000006D
:10039000000000000040000000000000000000001D
:1003A000000000000000004000000000000000000D
:1003B00000000020000000000000000000200000FD
:1003C000000000000000002000000000000000000D
:1003D00000000000000000000000000000200000FD
:1003E00000000000000000200000000000000000ED
:1003F000004000000000000000000040000000007D
:1004000000000000000000000000000000000000EC
:100410000000000000C0C0000000000000008000DC
:10042000000000000000008000000000000000004C
:1004300080000000000000000080000000000000BC
:1004400000008000000000000000008000000000AC
:10045000000000008000000000000000008000009C
:10046000000000000000008000000000000000000C
:100470000080000000000000000000C0C00000007C
:10048000000000000000000000000000000000006C
:10049000000000000000000000000000000000005C
:1004A000000000000000000000000000000000004C
:1004B000000000000000000000000000000000003C
:1004C000000000000000000000000000000000002C
:1004D000000000000000000000000000000000001C
:1004E000000000000000000000000000000000000C
:1004F00000000000000000000000000000000000FC
:100500000000000000000000000000000000F8FCF7
:100510000CEC2C2C2C2C2C2C2C2C2C2C2C2C2C2C7B
:100520002C2C2C2C2C2C2C2C2C2C2C2C2C2C2C2C0B
:100530002C2C2C2C2C2C2C2C2C2C2C2C2C2C2C2CFB
:100540002E2E203E000000000000003E202E2E2C0B
:100550002C2C2C2C2C2C2C2C2C2C2C2C2C2C2C2CDB
:100560002CEC0CEC2C2C2C2C2C2C2C2C2C2C2C2C6B
:100570002C2C2C2C2C2C2C2C2C2C2C2C2C2C2CECFB
:100580000CFCF80000000000000000000000FFFF6D
:1005900000FF00000000000000E020A0A0A0A0A03C
:1005A000A020E000000000000000E0A0A0A0A0A0AB
:1005B000A0A0A0A0A0A0A0A0A0A0A0A0A0A0A0A03B
:1005C000A0A0A0E000000000000000E020A0A0A08B
:1005D000A0A0A0A0A0A0A0A020E00000000000001B
:1005E00000FF80BFA0A0A0A0A0A0A0A020E00000CD
:1005F0000000000000E020E000000000000000FF1C
:1006000000FFFF0000000000000000000000FFFFEE
:1006100000FF00000000000000FF80BFBFBFBFBFA1
:10062000BF80FF000000000000008080808080808C
:10063000000000000000008080800000000000003A
:100640000080808000000000000000FF00FF00002C
:1006500000000000000000FF00FF0000000000009C
:100660000080808000000000000000FF80FF00008C
:100670000000000000FF80FF00000000000000FFFD
:1006800000FFFF0000000000000000000000FFFF6E
:1006900000FF80808080808080808080808080805B
:1006A00080808000000000000000FF00FEFE00FFD0
:1006B000000000000000001F101F000000000000EC
:1006C00000FF00FF00000000000000FF00FF00002E
:1006D000000000000000000F080F000000000000F4
:1006E00000FF00FF8080808080808080808000000C
:1006F000000000000080808080808080808080FFFB
:1007000000FFFF0000000000000000000000FFFFED
:1007100000FE0202020202020202020202020202BF
:1007200002020300000000000000FF00FFFF00FFC6
:1007300000000000000000F010F0000000000000C9
:1007400000FF00FF00000000000000FF00FF0000AD
:1007500000000000000000E020E0000000000000B9
:1007600000FF00FE02020202020202020203000077
:10077000000000000003020202020202020202FE66
:1007800000FFFF0000000000000000000000FFFF6D
:1007900000FF00000000000000FE02FAFAFAFAFA78
:1007A000FA02FE0000000000000003020202020341
:1007B0000000000000000003020300000000000031
:1007C0000003020300000000000000FF00FF000023
:1007D00000000000000000FF00FF0000000000001B
:1007E0000003020300000000000000FE02FE000003
:1007F0000000000000FE02FE00000000000000FFFC
:1008000000FFFF0000000000000000000000FFFFEC
:1008100000FF000000000000000F080B0B0B0B0B8B
:100820000B080F000000000000000E0A0A0A0A0A66
:100830000A0A0A0A0A0A0A0A0A0A0A0A0A0A0A0A18
:100840000A0A0A0E000000000000000F080B0A0A46
:100850000A0A0A0A0A0A0A0B080F00000000000030
:1008600000FE02FA0A0A0A0A0A0A0A0B080F000026
:1008700000000000000F080F00000000000000FF53
:1008800000FFFF00000000000000000000003F7FAC
:10089000606F6868686868686868686868686868D9
:1008A00068686868686868686868686868686868C8
:1008B00068686868686868686868686868686868B8
:1008C000E8E808F800000000000000F808E8E86820
:1008D0006868686868686868686868686868686898
:1008E000686F606F68686868686868686868686882
:1008F0006868686868686868686868686868686F71
:10090000607F3F0000000000000000000000F0F8E1
:100910001CCC2C2C2C2C2C2C2C2C2C2C2C2C2C2C87
:100920002C2C2C2C2C2C2C2C2C2C2C2C2C2C2C2C07
:100930002C2C2C2C2C2C2C2C2C2C2C2C2C2C2C2CF7
:100940002E2E201E000000000000001E202E2E2C47
:100950002C2C2C2C2C2C2C2C2C2C2C2C2C2C2C2CD7
:100960002CEC0CEC2C2C2C2C2C2C2C2C2C2C2C2C67
:100970002C2C2C2C2C2C2C2C2C2C2C2C2C2C2CCC17
:100980001CF8F00000000000000000000000FFFF65
:1009900000FF00000000000000C020A0A0A0A0A058
:1009A000A020C00000000000000040A0A0A0A0A067
:1009B000A0A0A0A0A0A0A0A0A0A0A0A0A0A0A0A037
:1009C000A0A0A04000000000000000C020A0A0A047
:1009D000A0A0A0A0A0A0A0A020C000000000000037
:1009E000007F80BFA0A0A0A0A0A0A0A020C0000069
:1009F0000000000000C020C000000000000000FF58
:100A000000FFFF0000000000000000000000FFFFEA
:100A100000FF000000000000007F80BFBFBFBFBF1D
:100A2000BF807F0000000000000000808080800008
:100A30000000000000000000800000000000000036
:100A40000000800000000000000000FF00FF000028
:100A500000000000000000FF00FF00000000000098
:100A600000008000000000000000007F807F000088
:100A700000000000007F807F00000000000000FFF9
:100A800000FFFF0000000000000000000000FFFF6A
:100A900000FF808080808080808080808080808057
:100AA00080800000000000000000FF00FEFE00FF4C
:100AB000000000000000000F100F00000000000008
:100AC00000FF00FF00000000000000FF00FF00002A
:100AD0000000000000000007A80700000000000060
:100AE00000FF00FF80808080808080808000000088
:100AF000000000000000808080808080808080FF77
:100B000000FFFF0000000000000000000000FFFFE9
:100B100000FE0202020202020202020202020202BB
:100B200002020100000000000000FF00FFFF00FFC4
:100B300000000000000000E010E0000000000000E5
:100B400000FF00FF00000000000000FF00FF0000A9
:100B500000000000000000C02AC0000000000000EB
:100B600000FF00FE02020202020202020201000075
:100B7000000000000001020202020202020202FE64
:100B800000FFFF0000000000000000000000FFFF69
:100B900000FF00000000000000FC02FAFAFAFAFA76
:100BA000FA02FC0000000000000001020202020143
:100BB0000000000000000001020100000000000031
:100BC0000001020100000000000000FF00FF000023
:100BD00000000000000000FF00FF00000000000017
:100BE0000001020100000000000000FC02FC000007
:100BF0000000000000FC02FC00000000000000FFFC
:100C000000FFFF0000000000000000000000FFFFE8
:100C100000FF0000000000000007080B0B0B0B0B8F
:100C20000B080700000000000000040A0A0A0A0A74
:100C30000A0A0A0A0A0A0A0A0A0A0A0A0A0A0A0A14
:100C40000A0A0A040000000000000007080B0A0A54
:100C50000A0A0A0A0A0A0A0B080700000000000034
:100C600000FC02FA0A0A0A0A0A0A0A0B080700002C
:100C7000000000000007080700000000000000FF5F
:100C800000FFFF00000000000000000000001F3F08
:100C900070676868686868686868686868686868CD
:100CA00068686868686868686868686868686868C4
:100CB00068686868686868686868686868686868B4
:100CC000E8E808F000000000000000F008E8E8682C
:100CD0006868686868686868686868686868686894
:100CE000686F606F6868686868686868686868687E
:100CF0006868686868686868686868686868686775
:100D0000703F1F007DFF7DFF6EFF6EFF5FFF5FFF87
:100D10004BFF4BFF4BFF74FF74FF74FF74FF64FFC6
:100D200064FF64FF64FF7DFF7DFF7DFF7DFF73FF38
:100D300073FF7DFF7DFF8CFF8CFF78FF78FF64FFE2
:100D400064FF64FF7DFF7DFF7DFF7DFF73FF73FF09
:100D50007DFF7DFF8CFF8CFF73FF73FF7DFF7DFFA9
:100D60008CFF8CFF9BFF9BFF9BFFA5FFA5FFA5FFB3
:100D7000AAFFAAFFAAFFAAFFAAFFA5FFA5FFA5FF3A
:100D8000A5FFA5FFA5FFAAFFAAFFAAFFAAFFAAFF2A
:100D900000000000370000000000380002020202DC
:100DA00002020202020201020408102020041008BC
:100DB0000102000004000000000011241FBECFE566
:100DC000D2E0DEBFCDBF10E0A0E6B0E0E2E8FFE198
:100DD00002C005900D92A436B107D9F720E0A4E631
:100DE000B0E001C01D92A638B207E1F721D2C7C812
:100DF00007C9823089F018F4813051F008958330AA
:100E000019F0843009F008958CB58F7D8CBD08955C
:100E10008AB58F778ABD08958AB58F7DFBCF1F93E2
:100E2000CF93DF93E4EBFDE09491EAEAFDE0D49107
:100E3000E0EAFDE0C491CC23B1F0182F992311F022
:100E4000892FD7DFEC2FF0E0EE0FFF1FEA56F24FAD
:100E5000A591B4918FB7F894EC91111108C0D09579
:100E6000DE23DC938FBFDF91CF911F910895DE2B9E
:100E7000F8CFCF93DF9390E0FC01EA55F24F249135
:100E80008456924FFC0184918823D1F090E0880F22
:100E9000991FFC01E057F24FA591B491FC01EA566D
:100EA000F24FC591D49161110EC09FB7F8948C9107
:100EB000E22FE0958E238C932881E223E8839FBF65
:100EC000DF91CF9108958FB7F894EC91E22BEC93DA
:100ED0008FBFF6CF865087B9369A3699FECF84B148
:100EE00095B108953FB7F894809182009091830066
:100EF000A0918400B091850022B708B601FE05C01C
:100F00002F3F19F00196A11DB11D3FBFBA2FA92F88
:100F1000982F8827BC01CD01620F711D811D911D85
:100F200042E0660F771F881F991F4A95D1F70895F1
:100F30008F929F92AF92BF92CF92DF92EF92FF92E9
:100F40004B015C01CFDF6B017C01CCDF6C197D09AB
:100F50008E099F09683E734081059105B0F321E039
:100F6000821A9108A108B10888EEC80E83E0D81E45
:100F7000E11CF11C81149104A104B10431F7FF902C
:100F8000EF90DF90CF90BF90AF909F908F9008959B
:100F9000CF93DF93282FDB01842F90E06AE070E08D
:100FA000DDD7A80FB91F1696CC9116972C1708F409
:100FB0005AC0D0E030E0CE010796821793070CF4B8
:100FC00052C0442309F44CC011968C911197E0E271
:100FD000F0E28130A9F080916D009AEF980F973080
:100FE00048F08251873030F090916E0080917A0005
:100FF0008917B0F5F0917000F295FF0FF07EE0E0F8
:1010000080916F00811102C0442331F112968C91BE
:10101000129790E060E670E0A1D72C1B3D0B280FE3
:10102000391F8C9190E043E0880F991F4A95E1F7B2
:10103000280F391F13968C9190E053E0880F991F69
:101040005A95E1F7280F391F2F0F311DE20FF32FAB
:10105000F11DEC5BFF4F4491842FDF91CF910895F8
:10106000E0E0F0E0CDCF40E0F7CF9F92AF92BF92AB
:10107000CF92DF92EF92FF920F931F93CF93DF9364
:10108000982EB42EA52EC42FD52FD12CC12C062FCF
:1010900010E088E0E82EF12C8885082E000C990BD2
:1010A00080179107E9F44C2D6B2D7A2D892D70DF77
:1010B0002F8101C0880F2A95EAF7D82AC3942A966F
:1010C00055E0C512E9CF8D2DDF91CF911F910F9182
:1010D000FF90EF90DF90CF90BF90AF909F900895DA
:1010E00001960817190751F78F81882339F34C2D82
:1010F0006B2D7A2D892D4CDF90E02F81A701421BAB
:10110000510902C0959587954A95E2F7D6CF28E018
:10111000C29887FDC09A87FFC098C29A880F2A9507
:10112000B9F7C298C09AB898C29AC298B89AC098AB
:101130000895C09AC29AC098C2980895FF920F93DA
:101140001F93CF93DF93082FF62E10E0CFEFD0E060
:10115000C81BD1091F15E1F0002311F081E05FDE0B
:1011600080E08C171D0634F495E09A95F1F70000A5
:101170008F5FF7CF80E053DE80E08C171D0634F4DC
:1011800095E09A95F1F700008F5FF7CF1F5FE2CFF0
:10119000DF91CF911F910F91FF9008951F920F92B1
:1011A0000FB60F9211242F933F938F939F93AF937A
:1011B000BF9380917E0090917F00A0918000B091BC
:1011C000810030917D0023E0230F2D3758F50196E3
:1011D000A11DB11D20937D0080937E0090937F0020
:1011E000A0938000B0938100809182009091830051
:1011F000A0918400B09185000196A11DB11D80933E
:10120000820090938300A0938400B0938500BF91E7
:10121000AF919F918F913F912F910F900FBE0F90A3
:101220001F90189526E8230F0296A11DB11DD2CF5D
:10123000CF93DF93CDB7DEB7E8970FB6F894DEBF54
:101240000FBECDBF78948AB582608ABD8AB58160B1
:101250008ABD83B7826083BF83B7816083BF89B74C
:10126000826089BF80B7826080BF80B7816080BFA5
:10127000329A319A309A379A8CB580648CBDBA9A7A
:10128000B89AC29AC09A8FE39CE90197F1F700C01F
:1012900000004FDF88E73BDF80E039DF8EEA37DF91
:1012A00085ED35DF80E833DF88EA31DF8FE32FDF3C
:1012B00083ED2DDF80E02BDF80E429DF8DE827DF61
:1012C00084E125DF81EA23DF88EC21DF8AED1FDF5F
:1012D00082E11DDF81E81BDF8FEC19DF89ED17DF6D
:1012E00081EF15DF8BED13DF80E411DF80E20FDF8C
:1012F00080E00DDF8FEA0BDFC098C29AC09AAFE39F
:10130000BCE91197F1F700C0000060E081E0B1DDB9
:1013100061E084E0AEDD60E086E0ABDD60E089E0C6
:10132000A8DDFE0131961F0182E3DF011D928A953F
:10133000E9F78E01075D1F4F1CAB0BAB88EC809368
:101340007B0083E080937C0010926E0010926F000F
:1013500041E7642E40E0742E8FEFD3018D933D0161
:10136000BAE76B16B0E07B06C1F7109264001092EA
:101370006D0080917B00869580937A00E1E7F0E034
:101380008FEF81936E167F06E1F73FE7832E912C56
:10139000109270001B8280E48F8383E0898795E040
:1013A000988782E08E838D831C8281E08D872CE478
:1013B000298B34E03B8B1C868F8B4BE44B8F9D8FAE
:1013C0001E8A89A34DE44DA33FA318A28BA72FA784
:1013D00099AB1AA6E1EBFDE08491E7EAFDE0049108
:1013E000EDE9FDE01491111126C080916F00882372
:1013F00009F4FDC086E06EDD8E3E92400CF408C11B
:1014000086E068DD863B93400CF002C11E8289E0D5
:1014100061DD8E3E92400CF00AC189E05BDD853FC4
:1014200091400CF40CC189E055DD8E3E92400CF0E9
:1014300006C11D8204C18111DCDCE12FF0E0EE0F5A
:10144000FF1FE25EFF4FA591B491EC910E2369F26C
:1014500080916F008111CECF80916D00883108F0AE
:10146000FEC08F5F80936D0080916F00810120E04E
:10147000FF24F3948111F6C08101F12CB2E0DB2E40
:10148000BB24B39487E0A82E96E0592ED801169677
:101490004C9016971896EC9018971796CC90179733
:1014A00015968C91B7E0BE1508F46FC190916D0050
:1014B00090FF07C0FF2029F090917B00913A08F03F
:1014C00064C1813009F03EC1840DF80186838E2D00
:1014D0000E2C000C990B9695982F88279795879539
:1014E000D8011696EC914E2F50E04A5F5F4FFC01F9
:1014F000E40FF51FEC5FFA4F2491FC01E40FF51F98
:10150000EC57FA4F84914C2D50E0F4010C2C01C0A3
:10151000EE0F0A94EAF72E2361F428E030E0241B52
:10152000350BF40102C0F595E7952A95E2F7E8231B
:1015300069F0FF2009F431C15AD422E030E040E0E4
:1015400050E0C5D4F8016583F801468290916D00A2
:10155000D80114968C9190FF07C0FF2029F090913C
:101560007B00913A08F091C1813009F024C1F80163
:101570008781873008F015C18F5F8783D801179660
:101580008C91282F30E0833008F085C1A82D01C050
:10159000AA0F8A95EAF780E0F801208590E0820F93
:1015A000911D27FD9A959695982F88279795879551
:1015B000668130E020E070E0AC01460F571F6C5FA1
:1015C0007A4F680F791FCA01820F931FE0E08115DF
:1015D000944020F4FB01E20FF31FE491EA2309F0A9
:1015E000B2C32F5F3F4F2730310569F720C19CE41C
:1015F000998B23E02B8B8BE48B8F84E08D8F3DE4E4
:101600003DA32FA39FA789AB81E080936F0020CFDC
:1016100086E060DC853F91400CF4F9CE86E05ADC30
:101620008E3E92400CF0F3CE81E08E83F0CE89E0C6
:1016300051DC863B93400CF0F0CE81E08D838091AD
:101640006E00823020F0815080936E0005CF813093
:1016500009F002CF10926E0010927000FDCE109231
:101660006D0002CF4F8150E0F801808990E0BA010F
:101670006A5F7F4F68177907ECF106968417950724
:10168000CCF14985042E000C550B73E0440F551F17
:101690007A95E1F78885480F511D8289082E000C44
:1016A000990BBC01A3E0660F771FAA95E1F781892A
:1016B000860F972F911DBA016A5F7F4F68177907D0
:1016C000CCF0069684179507ACF083859091700056
:1016D000992369F0813031F064E684E12FDD64E61E
:1016E00082E02CDDD8011B96FC9220E003C021E0B3
:1016F0008130D9F3065F1F4FEBA9FCA90E171F0716
:1017000009F0B0CF222309F4B7CE68EC84E616DDE9
:1017100068EC8BE413DD68EC82E310DD68EC89E1B2
:101720000DDD68EC8CE00ADD60E971E080E090E0BE
:10173000FFDB80917C00882309F400CE81508093E8
:101740007C0026CE811121C0F1101AC0898583301A
:1017500019F48F81863529F08FEF840DD801169604
:101760008C938E2D0E2C000C990B9695982F882714
:1017700097958795D8011696EC914E2F50E0B7CEED
:101780008FEF840DF8018683ECCF813009F49FCE72
:10179000882339F380E020E0B6CED8011596DC929C
:1017A000D3CE178280858F5F893011F08087E6CE97
:1017B0002FEF2087E3CE81113AC0D80117968C9184
:1017C0001797882309F455C0815017968C93D80138
:1017D00017968C91A82D01C0AA0F8A95EAF7F801F7
:1017E0006085062E000C770B7695762F6627779509
:1017F0006795868130E020E090E0AB01480F591FEB
:101800008C5F9A4F860F971FBA01620F731FE0E03B
:101810006115744020F4FC01E20FF31FE491EA2308
:1018200009F091C22F5F3F4F2730310569F7909142
:101830006D00492F41709801265F3F4FF11052C053
:10184000411186C2F8018481813009F040C01382C1
:10185000F8018581813009F03EC089E08383898168
:101860004A854111BDC0823008F060C08F5F898316
:101870005EC0F801A782808581508E3F11F080877D
:10188000A6CFE8E01896EC93A2CF882309F49FCF67
:10189000813069F673CE88E090E0821B930BD4010F
:1018A00002C0B595A7958A95E2F781E075CE9FD2E3
:1018B00022E030E040E050E00AD3D80114966C9367
:1018C000D8011896EC9218971796CC92B0CF811148
:1018D000BFCF5382BDCF8111C2CFE3E0D8011396B1
:1018E000EC93BDCF992311F09C3059F4D801139695
:1018F0001C92139714968C911497811102C0139621
:10190000DC92F8018181813049F486818A548330E8
:1019100028F480858250833008F41182411107C079
:10192000D8018C91811162C0BC9201C0BA86F39437
:101930008901F5E0FF12AACD90FF5BC090E0E92F8E
:10194000E695E695E6958E2F68EFFFD2890F20E8A1
:1019500030E002C0359527958A95E2F7F0E0EF5820
:10196000FF4F8081822309F0DDC19E3309F0E9C178
:1019700012E001E06AE0812FE1DB64E1802F811B4E
:10198000DDDB1F5F1E33B1F768EE73E080E090E0AF
:10199000CFDA80917B008B3008F4EBCC8A508093B7
:1019A0007B00803A49F0883739F0803529F0883259
:1019B00019F08A3009F0DDCC80917C00833008F08A
:1019C000D8CC8F5F80937C0064E680E5B7DB6CE267
:1019D00071E080E090E0ACDAFA94F110F5CFC9CC78
:1019E000882311F0815043CF1A86A1CFF8011082CD
:1019F0009ECF8FEF8093640010E000E0C02E99DB53
:101A000088E785DB80E083DB802F806B80DB80E0F4
:101A10007EDB80E17CDBC098C29AC09A8ADB88E7D3
:101A200076DB80E474DBF12CE12CC8019695982FCD
:101A30008827979587959C012C5F364F3EAB2DAB41
:101A4000DC01AC5FBE4FB8AFAFAB2801B1E04B1AC1
:101A50005108BE2CE0E8EE16F10409F406C1EDA928
:101A6000FEA9EE0DFF1D80916F00882309F4F5C0DB
:101A7000D490A1016C2D8E2DF8DAD82AEFA9F8ADFB
:101A8000EE0DFF1DA490A1101EC0A12CDA2880919C
:101A90007C00C81608F0A6C0F7E0FB1508F4A2C049
:101AA000F701E45BFF4FE4918D2D8E2B25E0C216EC
:101AB00009F4B9C02C1508F497C034E0C31609F432
:101AC000BFC0E0E09EC080916400E1E0E80FE093D9
:101AD0006400EE3008F04CC0EC3018F4E23008F04E
:101AE00050C021E0AE2FA695A695A6958A2F68EF47
:101AF0002CD2E80FB0E0AF58BF4F8C9140E850E0D7
:101B00000E2E02C0559547950A94E2F7482309F432
:101B100064C09B81911162C09F819B1508F05EC0DB
:101B2000A70145505109941715060CF457C0498573
:101B3000042E000C550B0417150719F498859630E0
:101B400040F04415550509F049C09885963008F4D1
:101B500045C0E1509FE7E730B8F4F0E0EF54F24FB2
:101B6000099432C010C026C027C028C029C02AC08E
:101B7000E23338F0E43308F4B4CF8D53823008F404
:101B8000B0CF20E0AFCF9FED98239C932130F1F4AC
:101B900080917B0080936E002093700080916D0097
:101BA0009AEF980F973008F470CF8251873008F081
:101BB0006DCF6BCF9FEEE8CF97EFE6CF9BEFE4CFF3
:101BC0009DEFE2CF9EEFE0CF9FEBDECF6AE08AE0B1
:101BD000B5DA6AE082E3B2DA59CFA12C213009F0FC
:101BE00055CFDCCFE0E060CF96E0C91681F0A7E0EA
:101BF000CA1267CFF701EC5DFF4FAB1508F461CF58
:101C0000E4918E2B84DA2FEFE21AF20A22CF909120
:101C10007B009F3B08F055CFB7E0F701E45DFF4F35
:101C2000BB1570F74ECF90917B00953B08F049CFE4
:101C3000E7E0EB1508F445CFF701EC5CFF4FE0CF90
:101C400090917B009B3A08F03CCFF7E0FB1508F43D
:101C500038CFF701E45CFF4FD3CFD490A1016C2DB6
:101C60008E2D03DA8D298095CDCFC098C29AC09A67
:101C70000F5F1F4F0830110509F0C0CE8091690039
:101C800090916A00A0916B00B0916C00409165004A
:101C90005091660060916700709168008C019D0111
:101CA000041B150B260B370BB901A8014C3251054B
:101CB00061057105A0F42FB7F89480917E00909192
:101CC0007F00A0918000B09181002FBF80936900B8
:101CD00090936A00A0936B00B0936C00CFCF809379
:101CE000650090936600A0936700B09368008091B0
:101CF0006F008130B9F484E0E82E8DE0F82E00E921
:101D00001DE0F70131966491F70184916456885083
:101D100015DAF2E0EF0EF11C0E151F0591F782E0C7
:101D200080936F0080917000882309F453CB8091D9
:101D30006D0080FD4FCB80916E0061E08095FED9F3
:101D400049CB9F5FFCCDF110B2CDF801D482B8CD64
:101D50008901FF24F3949ACB8F929F92AF92BF9206
:101D6000CF92DF92EF92FF92CF93DF93EC016881E5
:101D700079818A819B81611571058105910521F425
:101D800064E279ED8BE597E02DE133EF41E050E03F
:101D90009ED049015A0127EA31E440E050E07ED06C
:101DA0006B017C012CEE34EF4FEF5FEFC501B40106
:101DB00075D0C60ED71EE81EF91EF7FE06C081E0DC
:101DC000C81AD108E10880E8F80AC882D982EA82F4
:101DD000FB82C701B6019F77DF91CF91FF90EF9013
:101DE000DF90CF90BF90AF909F908F9008958F928B
:101DF0009F92AF92BF92CF92DF92EF92FF9260914B
:101E000060007091610080916200909163006115A3
:101E100071058105910521F464E279ED8BE597E088
:101E20002DE133EF41E050E052D049015A0127EA59
:101E300031E440E050E032D06B017C012CEE34EF15
:101E40004FEF5FEFC501B40129D0C60ED71EE81EC3
:101E5000F91EF7FE06C081E0C81AD108E10880E843
:101E6000F80AC0926000D0926100E0926200F092A5
:101E70006300C701B6019F77FF90EF90DF90CF908E
:101E8000BF90AF909F908F90089560936000709383
:101E9000610080936200909363000895EE27FF270E
:101EA000AA27BB2708C0A20FB31FE41FF51F220FEC
:101EB000331F441F551F969587957795679598F31F
:101EC0007040A9F7009799F7BD01CF010895052E3D
:101ED00097FB16F400940FD057FD05D014D007FCE3
:101EE00002D046F408C050954095309521953F4F5B
:101EF0004F4F5F4F089590958095709561957F4FF6
:101F00008F4F9F4F0895A1E21A2EAA1BBB1BFD0104
:101F10000DC0AA1FBB1FEE1FFF1FA217B307E407C8
:101F2000F50720F0A21BB30BE40BF50B661F771F20
:101F3000881F991F1A9469F7609570958095909500
:101F40009B01AC01BD01CF010895002480FD060E68
:101F5000660F11F08695D1F7802D0895002455273E
:101F600004C0080E591F880F991F009729F0769515
:101F70006795B8F37105B9F7802D952F0895F894FA
:021F8000FFCF91
:041F8200010000005A
:00000001FF
