:1000000041C25BC25AC259C258C2A2C556C255C2E9
:1000100054C253C252C251C250C24FC24EC20C1C33
:100020003EFECE0630387C7F7360410400FCFE1E2D
:100030000EEE2EEE6EAE6EEEEEEE0EFEFEFE06FA4C
:100040009C0C0C0898F20206FEFEFEFEFEFEFEFE72
:10005000FE0EFE3EFEFEFEFEFEDEDE1EDEDEDE1ED0
:10006000FEFEFEFEFEFEFEFEFE7EFEFC0000FFFF2C
:100070000000FF4E6D6EEF44EFEFFF00FFFFFFFE4D
:10008000F8C73FFFFFFFFF80003FFFFF7F3F1F1FBD
:100090000F0F080F101F207F83FFFFFFABAAAAAA34
:1000A000CBFFFFFF8DDDDDDDCDFDD0FFFF0000FFCD
:1000B000FF0000FFE8EDECED4CFFFFFF00FFFFFF4E
:1000C000FFFFFFFEE11FFFFFFFC0003FC100000078
:1000D000000000000080C03000C1FFFFFF8CAA8834
:1000E000BACCFFFF9FB6B6365658EFFFFFFF0000B1
:1000F0003F7F6060676466666664666667707F7F80
:100100007F7F7F7F7F7F7F78776F6760707F7F7E65
:100110007C7C787878797C7C7E7F7F7F7F7F7A7A21
:100120007A7A7A7F7F7F7F7F7F7F7E7E7F7F3F00AF
:100130001304FF010101010101010101017D457568
:1001400005457D01FFFF00006090909090600000E9
:1001500029292FA9A94600FFFF0000E42A2A6A2ABC
:10016000EA00003A0A0A1A0A3900FFFF8080928AE0
:10017000868E928E808080808080808080FF0A02C0
:10018000FF017D457505457D01FFFF80AF89A9A968
:10019000A9AF80FF0C1830E0C00000001EF0C000C6
:1001A000000010F8CC0630180C0703000000780F90
:1001B00003000000081F3360ABAB2B2B0B0B0303BA
:1001C00083C3E373333B3B3B3B130303070F1F3FE7
:1001D0003F3F1F1F0F0F0F070707070707070707F7
:1001E00007070707070707070707070F0F0F1F3F37
:1001F000FFFFFF03D9D903FF02000000000006073C
:1002000003010000000406030301010000000000D8
:1002100000000000000000000080C0C0800000005E
:100220000000000C1E1E0C0000000000000000007A
:1002300000FFFF80B6B680FF40000000000060E0D5
:10024000C0800000002060C0C0808000000000006E
:100250000000000000000000000103030100000096
:10026000000000307878300000000000000000003E
:1002700000FFFF01ABAB01FFD5D5D4D4D0D0C0C0B7
:10028000C1C3C7CECCDCDCDCDCC8C0C0E0F0B8BC8D
:10029000BCBCB8B8B0B0B0B0B0B0B0B0B0B0B0B036
:1002A000B0B0B0B0B0B0B0B08080C0C0E0E0F0FCA2
:1002B000FFFFFFC0AAAAC0FFABAB2B2B0B0B0303A6
:1002C00083C3E373333B3B3B3B130303070F1F3FE6
:1002D0003F3F1F1F0F0F0F070707070707070707F6
:1002E00007070707070707070707070F0F0F1F3F36
:1002F000FFFFFF03D9D903FF02000000000006073B
:1003000003010000000406030301010000000000D7
:100310000000000000000000C060A0A060C000005D
:1003200000001E332D2D331E0000000000000000D1
:1003300000FFFF80B6B680FF40000000000060E0D4
:10034000C0800000002060C0C0808000000000006D
:100350000000000000000000030605050603000081
:10036000000078CCB4B4CC7800000000000000009D
:1003700000FFFF01ABAB01FFD5D5D4D4D0D0C0C0B6
:10038000C1C3C7CECCDCDCDCDCC8C0C0E0F0B8BC8C
:10039000BCBCB8B8B0B0B0B0B0B0B0B0B0B0B0B035
:1003A000B0B0B0B0B0B0B0B08080C0C0E0E0F0FCA1
:1003B000FFFFFFC0AAAAC0FFFFC08080C0FFFFC030
:1003C0008080C0FFFFC08080C0FFFFC08080C0FF72
:1003D000FFC18081C0FFFFC58285C2FFFFD58A951E
:1003E000CAFFFFD5AAD5EAFFFF01010101FFFF0502
:1003F000030503FFFF150B150BFFFF552B552BFFB7
:10040000FF55AB55ABFFFF55AB55ABFFFF55AB559C
:10041000ABFFFF55AB55ABFFFF80808080FFFF80B7
:10042000808080FFFF80808080FFFF80868680FF45
:10043000FF80B6B680FFFF03010103FFFF03191918
:1004400003FFFF03D9D903FFFF03D9D903FFFF033C
:10045000D9D903FF00000000380000000000370079
:100460000000000036000202020202020202020242
:1004700001020408102020041008010200000400FA
:100480000000000011241FBECFE5D2E0DEBFCDBFCB
:1004900010E0A0E6B0E0E4EFFEE102C005900D92AE
:1004A000AE36B107D9F720E0AEE6B0E001C01D924C
:1004B000AF37B207E1F796D31BCDA2CDEF92FF92F3
:1004C0000F931F93CF93DF93F801E4903196E4915B
:1004D000A42FB0E0C82F880FDD0BF12CC7010197C6
:1004E0008C0F9D1F8A179B0734F1AC17BD071CF1B9
:1004F000822F90E0062E000C770B86179707DCF012
:10050000E150FF0BE60FF71FE817F907A4F0861B71
:10051000970BB701DCDCAC1BBD0BA80FB91F129603
:100520000A0F1B1FF8018491DF91CF911F910F914A
:10053000FF90EF90089580E0F7CF83E087B9369A77
:100540003699FECF84B195B10895823089F018F4C0
:10055000813051F00895833019F0843009F0089506
:100560008CB58F7D8CBD08958AB58F778ABD08952F
:100570008AB58F7DFBCFCF93DF93EBE7F4E08491D7
:10058000E1E7F4E0D491E7E6F4E0C491CC2399F0FC
:100590008111DBDFEC2FF0E0EE0FFF1FE05AFB4F85
:1005A000A591B491EC91ED2381E090E009F480E015
:1005B000DF91CF91089580E090E0FACFCF93DF9361
:1005C00090E0FC01E059FB4F24918A599B4FFC01BC
:1005D00084918823D1F090E0880F991FFC01E65A9E
:1005E000FB4FA591B491FC01EC5AFB4FC591D491FE
:1005F00061110EC09FB7F8948C91E22FE0958E2385
:100600008C932881E223E8839FBFDF91CF910895E7
:100610008FB7F894EC91E22BEC938FBFF6CF3FB7F6
:10062000F89480917B0090917C00A0917D00B09126
:100630007E0022B708B601FE05C02F3F19F00196D3
:10064000A11DB11D3FBFBA2FA92F982F8827BC012C
:10065000CD01620F711D811D911D42E0660F771F54
:10066000881F991F4A95D1F708958F929F92AF9254
:10067000BF92CF92DF92EF92FF924B015C01CFDFEE
:100680006B017C01CCDF6C197D098E099F09683EE6
:10069000734081059105B0F321E0821A9108A10809
:1006A000B10888EEC80E83E0D81EE11CF11C81144D
:1006B0009104A104B10431F7FF90EF90DF90CF9047
:1006C000BF90AF909F908F90089580FF0BC080ECFB
:1006D00067FF80E066FD806365FD8C6064FF0BC092
:1006E000836009C080EC63FF80E062FD806361FD90
:1006F0008C6060FDF5CF0895E82F869586958695E8
:1007000068EFDCDBE80FF0E0EA59FF4F80810895E5
:10071000CF93DF93EC0120E030E040E85FE36885B1
:1007200079858A859B855BDB181644F480E090E030
:10073000A0E8BFE388879987AA87BB8720E030E0DD
:1007400040E85FEB688579858A859B85F9D987FFC5
:1007500008C080E090E0A0E8BFEB88879987AA876F
:10076000BB8720E030E040E85FE36C857D858E85C7
:100770009F8535DB181644F480E090E0A0E8BFE3E5
:100780008C879D87AE87BF8720E030E040E85FEB35
:100790006C857D858E859F85D3D987FF08C080E0D5
:1007A00090E0A0E8BFEB8C879D87AE87BF87DF9185
:1007B000CF9108958F929F92AF92BF92CF92DF9286
:1007C000EF92FF92CF93DF93EC01A2DFC888D98824
:1007D000EA88FB8820E030E0A901C701B601FFDA12
:1007E00087FD44C0888C998CAA8CBB8C20E030E0BB
:1007F00040E85FEBC501B401F2DA1816A4F42DEC61
:100800003CEC4CE45DE3C501B40135D94B015C011E
:1008100020E030E040E85FEBE2DA181624F4888E3E
:10082000998EAA8EBB8EA7019601688D798D8A8DCF
:100830009B8D22D9688B798B8A8B9B8B2C8D3D8DE0
:100840004E8D5F8D6C897D898E899F8915D96C8BC2
:100850007D8B8E8B9F8BDF91CF91FF90EF90DF9000
:10086000CF90BF90AF909F908F90089581E088A720
:10087000E5CF28E0C29887FDC09A87FFC098C29A4A
:10088000880F2A95B9F7C298C09AB898C29AC298A8
:10089000B89AC0980895C098C29AC09A0895C09A0C
:1008A000C29AC098C2980895CF93C82FF8DF88E7FE
:1008B000E0DF80E0DEDF8C2F8770806BDADF80E0A6
:1008C000D8DF80E1D6DFE7DFEADF88E7D2DF80E448
:1008D000CF91CFCFEF92FF920F931F93CF93DF93E0
:1008E000E82EDEEF82E0F82EFD0E8F2DDDDFC0E07A
:1008F00081E0E81609F182E0E81629F181EE8C0F1B
:10090000813450F4D43040F40AE210E02F2D4C2F03
:1009100062E08FE1D3DD01C08FEFABDFCF5FC03886
:1009200039F7B9DFDF5FD630E9F6DF91CF911F915C
:100930000F91FF90EF9008950EE711E02F2D4C2FAF
:1009400063E08BE3E7CF00E311E02F2D4C2F62E053
:1009500086E3E0CF90E02FEF30E0281B31098111D2
:10096000C49A40E04217130634F455E05A95F1F763
:1009700000004F5FF7CFC49840E04217130634F4ED
:1009800055E05A95F1F700004F5FF7CF9F5F69136D
:10099000E6CF08954F925F926F927F928F929F92CF
:1009A000AF92BF92CF92DF92EF92FF920F931F937D
:1009B000CF93DF932B013C0149015A017801C80113
:1009C000A7DE20E030E0A901C301B20108DA20E08F
:1009D00030E040E05FE387FD56C0C301B2014CD870
:1009E0001BD9162F20E030E0A901C501B401F7D9C9
:1009F00020E030E040E05FE387FD49C0C501B4017D
:100A00003BD80AD9D62E212F30E0E62FE695E69581
:100A1000E695F0E086E0EE0FFF1F8A95E1F7EF0123
:100A2000C20FD31F1450163008F071C085EF8D0D22
:100A3000843008F059C0C090720089010450110937
:100A40008D2D5ADEC11027C00A551E4FF8010491A2
:100A5000082309F07BC0FE01E854FE4FE491E8232F
:100A600081E0A1F1DF91CF911F910F91FF90EF9065
:100A7000DF90CF90BF90AF909F908F907F906F90BE
:100A80005F904F900895C301B201F5D7A9CFC5017A
:100A9000B401F1D7B6CF0C5D1F4FF80104910823C4
:100AA00031F4FE01E854FE4FE491E82379F0F3E0DD
:100AB000CF1671F080E090E0A0E0B0E4F701808F05
:100AC000918FA28FB38F6CE084E144DF80E0CACFC6
:100AD00080E090E0A0E8BFE3F701808F918FA28FC4
:100AE000B38F66E081E0F1CF8FEE8D0D843078F426
:100AF000C09071008901045011098D2DFDDDC110D8
:100B000003C00C561E4FA2CF025E1F4FC6CF205E01
:100B10003F4F809160008217130669F064F020E077
:100B200030E040EF51E4F70164817581868197815F
:100B300007D8882359F0C854DE4FFE01C4918D2D8B
:100B4000DBDDC82381E009F08DCFC0CF81E08ACF03
:100B50001F920F920FB60F9211242F933F938F93F2
:100B60009F93AF93BF938091770090917800A0916D
:100B70007900B0917A003091760023E0230F2D3771
:100B800058F50196A11DB11D209376008093770042
:100B900090937800A0937900B0937A0080917B00C5
:100BA00090917C00A0917D00B0917E000196A11DE6
:100BB000B11D80937B0090937C00A0937D00B09347
:100BC0007E00BF91AF919F918F913F912F910F9098
:100BD0000FBE0F901F90189526E8230F0296A11DB7
:100BE000B11DD2CFCF93DF93CDB7DEB7EB970FB662
:100BF000F894DEBF0FBECDBF78948AB582608ABDFF
:100C00008AB581608ABD83B7826083BF83B7816004
:100C100083BF89B7826089BF80B7826080BF80B799
:100C2000816080BF329A319A309A379A8CB580644D
:100C30008CBD2FEF33EF41E0215030404040E1F7D1
:100C400000C00000BA9AB89AC29AC09A8FE39CE991
:100C50000197F1F700C0000022DE88E70ADE80E09D
:100C600008DE8EEA06DE85ED04DE80E802DE88EA34
:100C700000DE8FE3FEDD83EDFCDD80E0FADD80E465
:100C8000F8DD8DE8F6DD84E1F4DD81EAF2DD88EC63
:100C9000F0DD8AEDEEDD82E1ECDD81E8EADD8FEC6E
:100CA000E8DD89EDE6DD81EFE4DD8BEDE2DD80E47A
:100CB000E0DD80E2DEDD80E0DCDD8FEADADDEBDD49
:100CC000AFE3BCE91197F1F700C00000BFEF23EFDD
:100CD00031E0B15020403040E1F700C0000060E05A
:100CE00089E06CDC60E081E069DC61E084E066DC86
:100CF000EEE7F4E08491E4E7F4E00491EAE6F4E05E
:100D00001491112389F0811120DCE12FF0E0EE0F26
:100D1000FF1FEC5AFB4FA591B4918FB7F894EC915B
:100D200000950E230C938FBF1092750085E0809381
:100D3000610080E0CFDD64EF71E080E090E095DC61
:100D40001FEF62E0812F06DE1150D9F762E0812F9C
:100D500001DE1F5F1F3FD1F768EE73E080E090E097
:100D600084DCDBD5EADB8E3E92400CF069C203DC0A
:100D7000892B09F06BC281E0ADDD81E080937400C6
:100D800068EE73E080E090E070DC80916100882381
:100D900009F467C2815080936100FE01399687E2B1
:100DA000DF011D928A95E9F720E030E048E352E444
:100DB00029833A834B835C8380E090E0A0EFB1E429
:100DC0008D839E83AF83B887298B3A8B4B8B5C8B4B
:100DD0008D8B9E8BAF8BB88FCE010196EBDC2D896E
:100DE0003E894F89588D69897A898B899C898E01C2
:100DF0000F5F1F4FCFDD882309F4DBC3C80188DCF8
:100E0000C980DA80EB80FC80C98ADA8AEB8AFC8AA6
:100E10006D817E818F8198856D8B7E8B8F8B988F76
:100E200009851A852B853C85098F1A8F2B8F3C8F5E
:100E30000D851E852F8538890D8F1E8F2F8F38A326
:100E400020E030E040EF51E47BD681119FC220E0EA
:100E500030E04CE352E4C701B60172D618160CF428
:100E600095C28E010F5F1F4F20E030E040EF51E44C
:100E7000C701B6018FDD81110AC2CE0101969ADC4D
:100E80004D805E806F80788489899A89AB89BC891E
:100E900088AB99ABAAABBBABCD88DE88EF88F88C6A
:100EA000898C9A8CAB8CBC8C2D8D3E8D4F8D58A12E
:100EB0002CAB3DAB4EAB5FAB20E030E040EE50E4FE
:100EC000C301B2013DD687FD20C020E030E040ECF8
:100ED00051E4C301B20183D71816BCF049805A808F
:100EE0006B807C8020E030E048EF51E4C301B20128
:100EF00027D687FD0AC020E030E040E452E4C30179
:100F0000B2016DD718160CF0B5C288A999A9AAA983
:100F1000BBA989839A83AB83BC83CD82DE82EF82B7
:100F2000F88689869A86AB86BC862CA93DA94EA9EF
:100F30005FA92D873E874F87588B20E030E048EE31
:100F400051E4C701B601FCD587FF03C066E081E02C
:100F500001DDCD8CDE8CEF8CF8A02AE939E949E17E
:100F60005EE3C701B6013BD787FD0BC02DEC3CEC1F
:100F70004CEC5DE3C701B6017ED56D8F7E8F8F8F00
:100F800098A3CD8CDE8CEF8CF8A02AE939E949E1F1
:100F90005EEBC701B601D4D518165CF02DEC3CEC25
:100FA0004CEC5DE3C701B60167D56D8F7E8F8F8FE7
:100FB00098A3C980DA80EB80FC8020E030E048EE26
:100FC00051E46D817E818F81988509D718168CF444
:100FD00020E030E040EB51E4C701B60100D718161D
:100FE00044F480E090E0A0EFB1E48D839E83AF8372
:100FF000B88720E030E0A901C701B601F0D620E0B3
:1010000030E040E05FE387FDF5C2C701B60134D5AB
:1010100003D661337105810591050CF456C0CD806E
:10102000DE80EF80F88420E030E0A901C701B6013E
:10103000D6D620E030E040E05FE387FDDFC2C701A5
:10104000B6011AD5E9D56B017C01BEE1CB16D104FE
:10105000E104F104D1F520E030E048E452E42983D2
:101060003A834B835C8380E090E0A8EEB1E48D830B
:101070009E83AF83B88751D42AE030E040E050E04F
:10108000BCD4FDD520E030E048EC52E45DD59B01B6
:10109000AC016DEC7CEC8CE49FE3EDD469877A873E
:1010A0008B879C873AD4A7019601A7D4E8D520E086
:1010B00030E048EC52E448D520E030E040E85FE31F
:1010C000DAD46D877E878F87988BCD80DE80EF8026
:1010D000F8842CE53FE84AE251E4C701B60130D577
:1010E00087FD90C22EEA37E44DEA51E4C701B6010C
:1010F00076D618160CF08AC237E038AB64E0962E2C
:1011000080917400813019F4912C87E088AB00E065
:10111000802FCADB602F669570E090E080E0AFD54D
:1011200020E030E040E850E4A7D47BD5162F862F8E
:1011300090E05C01A4E0AA1AB10846E0AA0CBB1C2E
:101140004A95E1F7D12CC12C9C01990F440B550B0A
:1011500028AF39AF4AAF5BAF091518F038A930177F
:1011600020F44BE04C1508F497C29C2D30E2632E1E
:101170006C0C59E5561508F4DEC2173049F485E3C6
:10118000861530F48091600020E4722E681608F015
:10119000712C2091720080917100153009F03BC2D2
:1011A0009450963008F049C223300CF022E0822F90
:1011B00090E066E070E08BD6FC01EC0DFD1DEE5575
:1011C000FE4FE49080916F0090917000F501EC0D5E
:1011D000FD1DE80FF91FE854FE4FF49029803A8076
:1011E0004B805C8020E030E0A901C201B101F7D55D
:1011F00020E030E040E05FE387FD21C2C201B101A1
:101200003BD40AD5605E6CAB2D803E804F80588405
:1012100020E030E0A901C201B101E1D520E030E0D9
:1012200040E05FE387FD0FC2C201B10125D4F4D4D1
:1012300080E2882E860E143008F009C280E022C2B7
:101240007CD9863B93400CF092CD95CD76D9853FE5
:1012500091400CF486CD71D98E3E92400CF081CD38
:101260008ACD6CE271E080E090E0FFD982E032DB71
:1012700015E064E684E66EDB64E681E06BDB11502A
:10128000C1F768EE73E080E090E0EFD94DCDC988FA
:10129000DA88EB88FC88609160006150770B072E3C
:1012A000000C880B990BEBD44B015C0120E030E083
:1012B00040E052E4C701B601DFD3A501940140D458
:1012C00087FF28C010E020E030E040E052E4C70192
:1012D000B601D2D39B01AC01C501B40180D518166B
:1012E0005CF420E030E040E85FE3C701B601C4D31E
:1012F0006B017C011F5FE7CFC98ADA8AEB8AFC8A1F
:10130000153040F080E090E0A0E0B0E4898F9A8F43
:10131000AB8FBC8FC98CDA8CEB8CFC8C20E030E07E
:10132000A901C701B6010CD418160CF4A6CDF7FA22
:10133000F094F7F8F094C98EDA8EEB8EFC8E9DCD8A
:1013400089859A85AB85BC85898F9A8FAB8FBC8F39
:101350008D859E85AF85B8898D8F9E8FAF8FB8A301
:10136000CE01019627DA2D893E894F89588D6989EA
:101370007A898B899C898E010F5F1F4F0BDB882335
:1013800009F47ECDF39437E0F31201C0F12C6981AA
:101390007A818B819C81698B7A8B8B8B9C8B0D8165
:1013A0001E812F8138850D8B1E8B2F8B388FA6E0E9
:1013B000AF15B0F2EF2DF0E0E152F64F0994C0CF37
:1013C00005C00AC017C01CC029C03EC089859A85C7
:1013D000AB85BC85B058B8CF89859A85AB85BC856F
:1013E000898F9A8FAB8FBC8F8D859E85AF85B8898D
:1013F000B058B2CF89859A85AB85BC85B058F0CFFF
:101400008D859E85AF85B889B058898F9A8FAB8FAF
:10141000BC8F89859A85AB85BC85EACF20E030E01A
:1014200040E85FE329D3698B7A8B8B8B9C8B2DEC07
:101430003CEC4CE45EEB298F3A8F4B8F5C8F8DEC4C
:101440009CECACE4BEE388CF20E030E040E85FE312
:1014500013D3698B7A8B8B8B9C8B2DEC3CEC4CE4FF
:101460005EEB298F3A8F4B8F5C8F2D8F3E8F4F8F86
:1014700058A376CF88A999A9AAA9BBA989839A83D9
:10148000AB83BC83CD82DE82EF82F88620E030E041
:1014900040E051E4C501B401A6D46B017C01C98EC2
:1014A000DA8EEB8EFC8E20E030E040E051E46CA957
:1014B0007DA98EA99FA997D44B015C018D8E9E8E2C
:1014C000AF8EB8A223E333E343EB5FE3C701B6017A
:1014D00086D4181644F483E393E3A3EBBFE3898F28
:1014E0009A8FAB8FBC8F23E333E343EB5FEB698DC4
:1014F0007A8D8B8D9C8D24D387FF08C083E393E383
:10150000A3EBBFEB898F9A8FAB8FBC8F23E333E3C1
:1015100043EB5FE3C501B40162D4181644F483E3DE
:1015200093E3A3EBBFE38D8F9E8FAF8FB8A323E32D
:1015300033E343EB5FEB6D8D7E8D8F8D98A100D3F0
:1015400087FF08C083E393E3A3EBBFEB8D8F9E8FF0
:10155000AF8FB8A3898D9A8DAB8DBC8D89879A8703
:10156000AB87BC878D8D9E8DAF8DB8A18D879E87F3
:10157000AF87B88BA0E0B1E0B0937000A0936F008C
:1015800080917500873020F48F5F80937500E1CCE7
:1015900080916100843018F48F5F80936100109215
:1015A00075001CE366E0812FD5D91C5E103FD1F792
:1015B000D0CC89899A89AB89BC8989839A83AB838A
:1015C000BC838D899E89AF89B88D8D839E83AF83BF
:1015D000B887898D9A8DAB8DBC8D89879A87AB87AB
:1015E000BC878D8D9E8DAF8DB8A18D879E87AF876F
:1015F000B88BDFCCC701B6013ED20ACDC701B60118
:101600003AD220CD912C43E048AB7ACD55E058AB8F
:1016100052E0952E75CD163081F49450963068F4D2
:1016200083300CF082E090E066E070E050D4FC0182
:10163000EC0DFD1DE057FE4FC4CDE12CC3CDC20122
:10164000B10119D2DECDC201B10115D2F0CD682DA4
:1016500066956695669570E090E080E010D31B017A
:101660002C0168AD79AD8AAD9BAD09D39B01AC016E
:10167000C201B10165D28111E1CD9CA96912DECD13
:10168000882D3AD8FE287F28672D682B802F1DD8FB
:10169000F82EEFD88F2DEDD8AFEFCA1ADA0AB0E4E2
:1016A000CB16D10409F058CDF6D80F5F083009F0F9
:1016B0002FCD80916F009091700081159140B1F411
:1016C00080916E008F5F80936E00823078F064E1CD
:1016D00081E040D964E184E13DD964E181E03AD917
:1016E0001092700010926F0010926E0010927400B1
:1016F00063E070E080E090E0B8D7809173008111E2
:1017000058C081E080937300C980DA80EB80FC8050
:1017100020E030E040E05FE3C701B60111D287FF6F
:101720004BC012E366E0812F15D91150D9F781E043
:10173000809374002ACBE6ECEC0D153011F120F407
:10174000143091F060E0A2CF163039F11730D1F7A4
:101750008091750090E066E070E0B9D3E80FF92F52
:10176000F11DE854FC4F0BC08091610090E066E0F1
:1017700070E0ADD3E80FF92FF11DEA5CFB4F6491E7
:1017800085CF8091610090E066E070E0A0D3E80F23
:10179000F92FF11DE85EFB4FF2CF8091750090E0CC
:1017A00066E070E094D3E80FF92FF11DE851FC4F8B
:1017B000E6CF10927300A8CF20E030E048EE51E46D
:1017C0006D817E818F8198850AD387FD40C020E09E
:1017D00030E040E951E4C701B60101D387FD37C0CD
:1017E000ACD68E3E924074F4C6D6892B79F08091A7
:1017F00060008F53893038F180916000883468F43C
:10180000885F09C09AD6863B934074F78091600048
:10181000873318F08250809360008FD61091720049
:10182000853F9140B4F41116F4F087D68E3E924075
:10183000E4F4A1D6892BE9F08091710018160CF020
:10184000CBCA81501CC088E480936000D5CF88E467
:10185000E2CF73D68E3E924034F7133034F71F5FD9
:1018600010937200E2CF1150FBCF67D6863B9340B6
:1018700004F78091710083300CF0AECA8F5F8093C3
:101880007100AACA8F929F92AF92BF92CF92DF92BD
:10189000EF92FF92CF93DF93EC01688179818A8187
:1018A0009B81611571058105910521F464E279ED53
:1018B0008BE597E02DE133EF41E050E09ED0490108
:1018C0005A0127EA31E440E050E07ED06B017C0110
:1018D0002CEE34EF4FEF5FEFC501B40175D0C60EAB
:1018E000D71EE81EF91EF7FE06C081E0C81AD1080F
:1018F000E10880E8F80AC882D982EA82FB82C7013F
:10190000B6019F77DF91CF91FF90EF90DF90CF905E
:10191000BF90AF909F908F9008958F929F92AF92BB
:10192000BF92CF92DF92EF92FF926091620070912E
:1019300063008091640090916500611571058105D7
:10194000910521F464E279ED8BE597E02DE133EF29
:1019500041E050E052D049015A0127EA31E440E029
:1019600050E032D06B017C012CEE34EF4FEF5FEF93
:10197000C501B40129D0C60ED71EE81EF91EF7FE18
:1019800006C081E0C81AD108E10880E8F80AC092D0
:101990006200D0926300E0926400F0926500C7019B
:1019A000B6019F77FF90EF90DF90CF90BF90AF9000
:1019B0009F908F900895609362007093630080936E
:1019C0006400909365000895EE27FF27AA27BB27A0
:1019D00008C0A20FB31FE41FF51F220F331F441FBF
:1019E000551F969587957795679598F37040A9F759
:1019F000009799F7BD01CF010895052E97FB16F4C6
:101A000000940FD057FD05D014D007FC02D046F447
:101A100008C050954095309521953F4F4F4F5F4FEF
:101A2000089590958095709561957F4F8F4F9F4F4A
:101A30000895A1E21A2EAA1BBB1BFD010DC0AA1F0F
:101A4000BB1FEE1FFF1FA217B307E407F50720F027
:101A5000A21BB30BE40BF50B661F771F881F991FA2
:101A60001A9469F760957095809590959B01AC01EB
:101A7000BD01CF0108955058BB27AA270ED075C1CC
:101A800066D130F06BD120F031F49F3F11F41EF499
:101A90005BC10EF4E095E7FB51C1E92F77D180F3EC
:101AA000BA17620773078407950718F071F49EF55B
:101AB0008FC10EF4E0950B2EBA2FA02D0B01B901AA
:101AC00090010C01CA01A0011124FF27591B99F0B4
:101AD000593F50F4503E68F11A16F040A22F232FC0
:101AE000342F4427585FF3CF469537952795A79510
:101AF000F0405395C9F77EF41F16BA0B620B730BB7
:101B0000840BBAF09150A1F0FF0FBB1F661F771F27
:101B1000881FC2F70EC0BA0F621F731F841F48F4DC
:101B2000879577956795B795F7959E3F08F0B3CF62
:101B30009395880F08F09927EE0F9795879508954C
:101B4000D9D008F481E008950CD00FC107D140F03E
:101B5000FED030F021F45F3F19F0F0C0511139C1CF
:101B6000F3C014D198F39923C9F35523B1F3951B0E
:101B7000550BBB27AA2762177307840738F09F5FAE
:101B80005F4F220F331F441FAA1FA9F333D00E2E1D
:101B90003AF0E0E830D091505040E695001CCAF78A
:101BA00029D0FE2F27D0660F771F881FBB1F26174F
:101BB00037074807AB07B0E809F0BB0B802DBF0122
:101BC000FF2793585F4F2AF09E3F510568F0B6C03B
:101BD00000C15F3FECF3983EDCF3869577956795FF
:101BE000B795F7959F5FC9F7880F911D96958795D3
:101BF00097F90895E1E0660F771F881FBB1F6217F2
:101C000073078407BA0720F0621B730B840BBA0BAF
:101C1000EE1F88F7E095089504D06894B111D9C0FB
:101C20000895BCD088F09F5790F0B92F9927B751ED
:101C3000A0F0D1F0660F771F881F991F1AF0BA9590
:101C4000C9F712C0B13081F0C3D0B1E00895C0C06F
:101C5000672F782F8827B85F39F0B93FCCF3869586
:101C600077956795B395D9F73EF4909580957095E3
:101C700061957F4F8F4F9F4F0895E89409C097FB60
:101C80003EF490958095709561957F4F8F4F9F4F53
:101C90009923A9F0F92F96E9BB279395F695879597
:101CA00077956795B795F111F8CFFAF4BB0F11F45A
:101CB00060FF1BC06F5F7F4F8F4F9F4F16C0882301
:101CC00011F096E911C0772321F09EE8872F762F37
:101CD00005C0662371F096E8862F70E060E02AF078
:101CE0009A95660F771F881FDAF7880F9695879564
:101CF00097F90895990F0008550FAA0BE0E8FEEF39
:101D000016161706E807F907C0F012161306E407BF
:101D1000F50798F0621B730B840B950B39F40A26B8
:101D200061F0232B242B252B21F408950A2609F496
:101D3000A140A6958FEF811D811D089597F99F679A
:101D400080E870E060E008959FEF80EC0895002443
:101D50000A941616170618060906089500240A9410
:101D600012161306140605060895092E0394000C96
:101D700011F4882352F0BB0F40F4BF2B11F460FF25
:101D800004C06F5F7F4F8F4F9F4F089557FD90584E
:101D9000440F551F59F05F3F71F04795880F97FB2F
:101DA000991F61F09F3F79F08795089512161306E9
:101DB0001406551FF2CF4695F1DF08C01616170618
:101DC0001806991FF1CF869571056105089408954D
:101DD000E894BB2766277727CB0197F908958ADF18
:101DE00008F48FEF08950AD0C0CFB1DF28F0B6DF36
:101DF00018F0952309F0A2CFA7CFEBCFC7DFA8F348
:101E00009923D9F35523C9F3950F50E0551FAA27FD
:101E1000EE27FF27BB2700240894679520F4E20FE4
:101E2000F31FB41F0A1E220F331F441FAA1F6695FB
:101E3000A9F7779530F4F30FB41F0A1E121E08F4A9
:101E40006395330F441FAA1F221F769599F7879534
:101E500020F4B40F0A1E121E631F440FAA1F221F74
:101E6000331F8695A9F7862F712D602D11249F575A
:101E700050408AF0E1F088234AF0EE0FFF1FBB1FAD
:101E8000661F771F881F91505040A9F79E3F51054C
:101E900070F054CF9ECF5F3FECF3983EDCF3869515
:101EA00077956795B795F795E7959F5FC1F7FE2BF7
:101EB000880F911D9695879597F90895002480FDC8
:101EC000060E660F11F08695D1F7802D0895002437
:101ED000552704C0080E591F880F991F009729F035
:101EE00076956795B8F37105B9F7802D952F08950C
:041EF000F894FFCF94
:0E1EF400480401000000010204081020408094
:00000001FF
